{
  "contractName": "DMTWiFiBox",
  "abi": [
    {
      "constant": true,
      "inputs": [
        {
          "name": "",
          "type": "address"
        }
      ],
      "name": "users",
      "outputs": [
        {
          "name": "addr",
          "type": "address"
        },
        {
          "name": "credit",
          "type": "uint256"
        },
        {
          "name": "start",
          "type": "uint256"
        },
        {
          "name": "pi",
          "type": "address"
        }
      ],
      "payable": false,
      "stateMutability": "view",
      "type": "function",
      "signature": "0xa87430ba"
    },
    {
      "constant": true,
      "inputs": [
        {
          "name": "",
          "type": "address"
        }
      ],
      "name": "devices",
      "outputs": [
        {
          "name": "addr",
          "type": "address"
        },
        {
          "name": "name",
          "type": "bytes32"
        },
        {
          "name": "owner",
          "type": "address"
        }
      ],
      "payable": false,
      "stateMutability": "view",
      "type": "function",
      "signature": "0xe7b4cac6"
    },
    {
      "anonymous": false,
      "inputs": [
        {
          "indexed": true,
          "name": "from",
          "type": "address"
        },
        {
          "indexed": true,
          "name": "pi",
          "type": "address"
        },
        {
          "indexed": false,
          "name": "ipaddr",
          "type": "uint256"
        },
        {
          "indexed": false,
          "name": "maxtime",
          "type": "uint256"
        }
      ],
      "name": "online",
      "type": "event",
      "signature": "0x40484bff702f49a17999c97ac7607bfb7f094d9d69a4fabe7642ddb7a7ebcb97"
    },
    {
      "anonymous": false,
      "inputs": [
        {
          "indexed": true,
          "name": "from",
          "type": "address"
        },
        {
          "indexed": true,
          "name": "to",
          "type": "address"
        },
        {
          "indexed": false,
          "name": "credit",
          "type": "uint256"
        }
      ],
      "name": "deposit",
      "type": "event",
      "signature": "0x8340f549784ae20e594a56455e5abb4ed826297c781c961abb34abe5fd01dcac"
    },
    {
      "anonymous": false,
      "inputs": [
        {
          "indexed": true,
          "name": "from",
          "type": "address"
        },
        {
          "indexed": true,
          "name": "owner",
          "type": "address"
        },
        {
          "indexed": false,
          "name": "starttm",
          "type": "uint256"
        },
        {
          "indexed": false,
          "name": "endtm",
          "type": "uint256"
        },
        {
          "indexed": false,
          "name": "creditused",
          "type": "uint256"
        }
      ],
      "name": "deduction",
      "type": "event",
      "signature": "0xac760da41b7b62ddc9f226b171e6e493ab435e63eee18553b90479d0d7b4e3e5"
    },
    {
      "anonymous": false,
      "inputs": [
        {
          "indexed": true,
          "name": "from",
          "type": "address"
        },
        {
          "indexed": false,
          "name": "pi",
          "type": "address"
        }
      ],
      "name": "offline",
      "type": "event",
      "signature": "0x8b18c0b2ff6e0a182b133f1a5011e7ca5e7926f8b6693aa40331f2fdf9a041bd"
    },
    {
      "constant": false,
      "inputs": [],
      "name": "registerUser",
      "outputs": [
        {
          "name": "",
          "type": "bool"
        }
      ],
      "payable": false,
      "stateMutability": "nonpayable",
      "type": "function",
      "signature": "0x4d3820eb"
    },
    {
      "constant": false,
      "inputs": [
        {
          "name": "devaddr",
          "type": "address"
        },
        {
          "name": "devname",
          "type": "bytes32"
        }
      ],
      "name": "registerDevice",
      "outputs": [
        {
          "name": "",
          "type": "bool"
        }
      ],
      "payable": false,
      "stateMutability": "nonpayable",
      "type": "function",
      "signature": "0xf53ddc22"
    },
    {
      "constant": false,
      "inputs": [
        {
          "name": "devaddr",
          "type": "address"
        }
      ],
      "name": "unregisterDevice",
      "outputs": [
        {
          "name": "",
          "type": "bool"
        }
      ],
      "payable": false,
      "stateMutability": "nonpayable",
      "type": "function",
      "signature": "0x220e8162"
    },
    {
      "constant": true,
      "inputs": [],
      "name": "getUserDevices",
      "outputs": [
        {
          "name": "",
          "type": "address[20]"
        },
        {
          "name": "",
          "type": "bytes32[20]"
        }
      ],
      "payable": false,
      "stateMutability": "view",
      "type": "function",
      "signature": "0x688db667"
    },
    {
      "constant": false,
      "inputs": [
        {
          "name": "to",
          "type": "address"
        }
      ],
      "name": "increaseCredit",
      "outputs": [],
      "payable": true,
      "stateMutability": "payable",
      "type": "function",
      "signature": "0xa1c89fa6"
    },
    {
      "constant": true,
      "inputs": [
        {
          "name": "addr",
          "type": "address"
        }
      ],
      "name": "getUserCredit",
      "outputs": [
        {
          "name": "",
          "type": "uint256"
        }
      ],
      "payable": false,
      "stateMutability": "view",
      "type": "function",
      "signature": "0xdad6f0dc"
    },
    {
      "constant": false,
      "inputs": [
        {
          "name": "pi",
          "type": "address"
        },
        {
          "name": "ipaddr",
          "type": "uint256"
        }
      ],
      "name": "userOnline",
      "outputs": [],
      "payable": false,
      "stateMutability": "nonpayable",
      "type": "function",
      "signature": "0x1c5c15f7"
    },
    {
      "constant": false,
      "inputs": [
        {
          "name": "from",
          "type": "address"
        }
      ],
      "name": "userOffline",
      "outputs": [],
      "payable": false,
      "stateMutability": "nonpayable",
      "type": "function",
      "signature": "0x7264f348"
    }
  ],
  "bytecode": "0x608060405234801561001057600080fd5b5061232f806100206000396000f3fe60806040526004361061009e576000357c0100000000000000000000000000000000000000000000000000000000900480631c5c15f7146100a3578063220e8162146100fe5780634d3820eb14610167578063688db667146101965780637264f34814610218578063a1c89fa614610269578063a87430ba146102ad578063dad6f0dc1461037f578063e7b4cac6146103e4578063f53ddc22146104af575b600080fd5b3480156100af57600080fd5b506100fc600480360360408110156100c657600080fd5b81019080803573ffffffffffffffffffffffffffffffffffffffff16906020019092919080359060200190929190505050610522565b005b34801561010a57600080fd5b5061014d6004803603602081101561012157600080fd5b81019080803573ffffffffffffffffffffffffffffffffffffffff16906020019092919050505061095e565b604051808215151515815260200191505060405180910390f35b34801561017357600080fd5b5061017c610dbf565b604051808215151515815260200191505060405180910390f35b3480156101a257600080fd5b506101ab610f4e565b6040518083601460200280838360005b838110156101d65780820151818401526020810190506101bb565b5050505090500182601460200280838360005b838110156102045780820151818401526020810190506101e9565b505050509050019250505060405180910390f35b34801561022457600080fd5b506102676004803603602081101561023b57600080fd5b81019080803573ffffffffffffffffffffffffffffffffffffffff169060200190929190505050611233565b005b6102ab6004803603602081101561027f57600080fd5b81019080803573ffffffffffffffffffffffffffffffffffffffff169060200190929190505050611784565b005b3480156102b957600080fd5b506102fc600480360360208110156102d057600080fd5b81019080803573ffffffffffffffffffffffffffffffffffffffff169060200190929190505050611a4d565b604051808573ffffffffffffffffffffffffffffffffffffffff1673ffffffffffffffffffffffffffffffffffffffff1681526020018481526020018381526020018273ffffffffffffffffffffffffffffffffffffffff1673ffffffffffffffffffffffffffffffffffffffff16815260200194505050505060405180910390f35b34801561038b57600080fd5b506103ce600480360360208110156103a257600080fd5b81019080803573ffffffffffffffffffffffffffffffffffffffff169060200190929190505050611abd565b6040518082815260200191505060405180910390f35b3480156103f057600080fd5b506104336004803603602081101561040757600080fd5b81019080803573ffffffffffffffffffffffffffffffffffffffff169060200190929190505050611cb2565b604051808473ffffffffffffffffffffffffffffffffffffffff1673ffffffffffffffffffffffffffffffffffffffff1681526020018381526020018273ffffffffffffffffffffffffffffffffffffffff1673ffffffffffffffffffffffffffffffffffffffff168152602001935050505060405180910390f35b3480156104bb57600080fd5b50610508600480360360408110156104d257600080fd5b81019080803573ffffffffffffffffffffffffffffffffffffffff16906020019092919080359060200190929190505050611d1c565b604051808215151515815260200191505060405180910390f35b600073ffffffffffffffffffffffffffffffffffffffff168273ffffffffffffffffffffffffffffffffffffffff16141515156105c7576040517f08c379a000000000000000000000000000000000000000000000000000000000815260040180806020018281038252600f8152602001807f496e76616c69642061646472657373000000000000000000000000000000000081525060200191505060405180910390fd5b3373ffffffffffffffffffffffffffffffffffffffff16600160003373ffffffffffffffffffffffffffffffffffffffff1673ffffffffffffffffffffffffffffffffffffffff16815260200190815260200160002060000160009054906101000a900473ffffffffffffffffffffffffffffffffffffffff1673ffffffffffffffffffffffffffffffffffffffff161415156106cc576040517f08c379a00000000000000000000000000000000000000000000000000000000081526004018080602001828103825260138152602001807f4e6f74207265676973746572656420757365720000000000000000000000000081525060200191505060405180910390fd5b600073ffffffffffffffffffffffffffffffffffffffff16600160003373ffffffffffffffffffffffffffffffffffffffff1673ffffffffffffffffffffffffffffffffffffffff16815260200190815260200160002060030160009054906101000a900473ffffffffffffffffffffffffffffffffffffffff1673ffffffffffffffffffffffffffffffffffffffff161415156107d2576040517f08c379a00000000000000000000000000000000000000000000000000000000081526004018080602001828103825260178152602001807f4e6f74206c6f676f6e6564206f6e206f7468657220506900000000000000000081525060200191505060405180910390fd5b81600160003373ffffffffffffffffffffffffffffffffffffffff1673ffffffffffffffffffffffffffffffffffffffff16815260200190815260200160002060030160006101000a81548173ffffffffffffffffffffffffffffffffffffffff021916908373ffffffffffffffffffffffffffffffffffffffff16021790555042600160003373ffffffffffffffffffffffffffffffffffffffff1673ffffffffffffffffffffffffffffffffffffffff16815260200190815260200160002060020181905550600060018060003373ffffffffffffffffffffffffffffffffffffffff1673ffffffffffffffffffffffffffffffffffffffff168152602001908152602001600020600101548115156108e957fe5b0490508273ffffffffffffffffffffffffffffffffffffffff163373ffffffffffffffffffffffffffffffffffffffff167f40484bff702f49a17999c97ac7607bfb7f094d9d69a4fabe7642ddb7a7ebcb978484604051808381526020018281526020019250505060405180910390a3505050565b60008073ffffffffffffffffffffffffffffffffffffffff168273ffffffffffffffffffffffffffffffffffffffff1614151515610a04576040517f08c379a00000000000000000000000000000000000000000000000000000000081526004018080602001828103825260168152602001807f496e76616c69642064657669636520616464726573730000000000000000000081525060200191505060405180910390fd5b8173ffffffffffffffffffffffffffffffffffffffff166000808473ffffffffffffffffffffffffffffffffffffffff1673ffffffffffffffffffffffffffffffffffffffff16815260200190815260200160002060000160009054906101000a900473ffffffffffffffffffffffffffffffffffffffff1673ffffffffffffffffffffffffffffffffffffffff16141515610b08576040517f08c379a000000000000000000000000000000000000000000000000000000000815260040180806020018281038252600e8152602001807f4e6f74207265676973746572656400000000000000000000000000000000000081525060200191505060405180910390fd5b60008090505b600160003373ffffffffffffffffffffffffffffffffffffffff1673ffffffffffffffffffffffffffffffffffffffff16815260200190815260200160002060040180549050811015610cb3578273ffffffffffffffffffffffffffffffffffffffff16600160003373ffffffffffffffffffffffffffffffffffffffff1673ffffffffffffffffffffffffffffffffffffffff16815260200190815260200160002060040182815481101515610bc157fe5b9060005260206000200160009054906101000a900473ffffffffffffffffffffffffffffffffffffffff1673ffffffffffffffffffffffffffffffffffffffff161415610ca6576000600160003373ffffffffffffffffffffffffffffffffffffffff1673ffffffffffffffffffffffffffffffffffffffff16815260200190815260200160002060040182815481101515610c5957fe5b9060005260206000200160006101000a81548173ffffffffffffffffffffffffffffffffffffffff021916908373ffffffffffffffffffffffffffffffffffffffff160217905550610cb3565b8080600101915050610b0e565b5060008060008473ffffffffffffffffffffffffffffffffffffffff1673ffffffffffffffffffffffffffffffffffffffff16815260200190815260200160002060000160006101000a81548173ffffffffffffffffffffffffffffffffffffffff021916908373ffffffffffffffffffffffffffffffffffffffff16021790555060008060008473ffffffffffffffffffffffffffffffffffffffff1673ffffffffffffffffffffffffffffffffffffffff16815260200190815260200160002060020160006101000a81548173ffffffffffffffffffffffffffffffffffffffff021916908373ffffffffffffffffffffffffffffffffffffffff16021790555060019050919050565b60008073ffffffffffffffffffffffffffffffffffffffff16600160003373ffffffffffffffffffffffffffffffffffffffff1673ffffffffffffffffffffffffffffffffffffffff16815260200190815260200160002060000160009054906101000a900473ffffffffffffffffffffffffffffffffffffffff1673ffffffffffffffffffffffffffffffffffffffff16141515610ec6576040517f08c379a00000000000000000000000000000000000000000000000000000000081526004018080602001828103825260128152602001807f416c72656164792072656769737465726564000000000000000000000000000081525060200191505060405180910390fd5b33600160003373ffffffffffffffffffffffffffffffffffffffff1673ffffffffffffffffffffffffffffffffffffffff16815260200190815260200160002060000160006101000a81548173ffffffffffffffffffffffffffffffffffffffff021916908373ffffffffffffffffffffffffffffffffffffffff1602179055506001905090565b610f566122bb565b610f5e6122df565b610f666122bb565b610f6e6122df565b600080600090505b600160003373ffffffffffffffffffffffffffffffffffffffff1673ffffffffffffffffffffffffffffffffffffffff1681526020019081526020016000206004018054905081108015610fca5750601482105b1561122557600073ffffffffffffffffffffffffffffffffffffffff16600160003373ffffffffffffffffffffffffffffffffffffffff1673ffffffffffffffffffffffffffffffffffffffff1681526020019081526020016000206004018281548110151561103657fe5b9060005260206000200160009054906101000a900473ffffffffffffffffffffffffffffffffffffffff1673ffffffffffffffffffffffffffffffffffffffff1614151561121857600160003373ffffffffffffffffffffffffffffffffffffffff1673ffffffffffffffffffffffffffffffffffffffff168152602001908152602001600020600401818154811015156110cd57fe5b9060005260206000200160009054906101000a900473ffffffffffffffffffffffffffffffffffffffff16848360148110151561110657fe5b602002019073ffffffffffffffffffffffffffffffffffffffff16908173ffffffffffffffffffffffffffffffffffffffff1681525050600080600160003373ffffffffffffffffffffffffffffffffffffffff1673ffffffffffffffffffffffffffffffffffffffff1681526020019081526020016000206004018381548110151561118f57fe5b9060005260206000200160009054906101000a900473ffffffffffffffffffffffffffffffffffffffff1673ffffffffffffffffffffffffffffffffffffffff1673ffffffffffffffffffffffffffffffffffffffff16815260200190815260200160002060010154838360148110151561120657fe5b60200201818152505081806001019250505b8080600101915050610f76565b508282945094505050509091565b600073ffffffffffffffffffffffffffffffffffffffff168173ffffffffffffffffffffffffffffffffffffffff16141515156112d8576040517f08c379a000000000000000000000000000000000000000000000000000000000815260040180806020018281038252600f8152602001807f496e76616c69642061646472657373000000000000000000000000000000000081525060200191505060405180910390fd5b3373ffffffffffffffffffffffffffffffffffffffff16600160008373ffffffffffffffffffffffffffffffffffffffff1673ffffffffffffffffffffffffffffffffffffffff16815260200190815260200160002060030160009054906101000a900473ffffffffffffffffffffffffffffffffffffffff1673ffffffffffffffffffffffffffffffffffffffff161415156113dd576040517f08c379a000000000000000000000000000000000000000000000000000000000815260040180806020018281038252601e8152602001807f55736572206469646e2774206c6f676f6e6564206f6e2074686973205069000081525060200191505060405180910390fd5b60008060003373ffffffffffffffffffffffffffffffffffffffff1673ffffffffffffffffffffffffffffffffffffffff16815260200190815260200160002060020160009054906101000a900473ffffffffffffffffffffffffffffffffffffffff1690506000600160008473ffffffffffffffffffffffffffffffffffffffff1673ffffffffffffffffffffffffffffffffffffffff1681526020019081526020016000206002015490506000429050600060018383030290506000600160008773ffffffffffffffffffffffffffffffffffffffff1673ffffffffffffffffffffffffffffffffffffffff16815260200190815260200160002060030160006101000a81548173ffffffffffffffffffffffffffffffffffffffff021916908373ffffffffffffffffffffffffffffffffffffffff1602179055506000600160008773ffffffffffffffffffffffffffffffffffffffff1673ffffffffffffffffffffffffffffffffffffffff1681526020019081526020016000206002018190555080600160008773ffffffffffffffffffffffffffffffffffffffff1673ffffffffffffffffffffffffffffffffffffffff1681526020019081526020016000206001015410156115f357600160008673ffffffffffffffffffffffffffffffffffffffff1673ffffffffffffffffffffffffffffffffffffffff1681526020019081526020016000206001015490505b61164881600160008873ffffffffffffffffffffffffffffffffffffffff1673ffffffffffffffffffffffffffffffffffffffff1681526020019081526020016000206001015461227890919063ffffffff16565b600160008773ffffffffffffffffffffffffffffffffffffffff1673ffffffffffffffffffffffffffffffffffffffff168152602001908152602001600020600101819055508473ffffffffffffffffffffffffffffffffffffffff167f8b18c0b2ff6e0a182b133f1a5011e7ca5e7926f8b6693aa40331f2fdf9a041bd33604051808273ffffffffffffffffffffffffffffffffffffffff1673ffffffffffffffffffffffffffffffffffffffff16815260200191505060405180910390a28373ffffffffffffffffffffffffffffffffffffffff168573ffffffffffffffffffffffffffffffffffffffff167fac760da41b7b62ddc9f226b171e6e493ab435e63eee18553b90479d0d7b4e3e585858560405180848152602001838152602001828152602001935050505060405180910390a35050505050565b600073ffffffffffffffffffffffffffffffffffffffff168173ffffffffffffffffffffffffffffffffffffffff1614151515611829576040517f08c379a000000000000000000000000000000000000000000000000000000000815260040180806020018281038252600f8152602001807f496e76616c69642061646472657373000000000000000000000000000000000081525060200191505060405180910390fd5b8073ffffffffffffffffffffffffffffffffffffffff16600160008373ffffffffffffffffffffffffffffffffffffffff1673ffffffffffffffffffffffffffffffffffffffff16815260200190815260200160002060000160009054906101000a900473ffffffffffffffffffffffffffffffffffffffff1673ffffffffffffffffffffffffffffffffffffffff1614151561192e576040517f08c379a00000000000000000000000000000000000000000000000000000000081526004018080602001828103825260138152602001807f4e6f74207265676973746572656420757365720000000000000000000000000081525060200191505060405180910390fd5b6000670de0b6b3a76400006064340281151561194657fe5b04905061199e81600160008573ffffffffffffffffffffffffffffffffffffffff1673ffffffffffffffffffffffffffffffffffffffff1681526020019081526020016000206001015461229a90919063ffffffff16565b600160008473ffffffffffffffffffffffffffffffffffffffff1673ffffffffffffffffffffffffffffffffffffffff168152602001908152602001600020600101819055508173ffffffffffffffffffffffffffffffffffffffff163373ffffffffffffffffffffffffffffffffffffffff167f8340f549784ae20e594a56455e5abb4ed826297c781c961abb34abe5fd01dcac836040518082815260200191505060405180910390a35050565b60016020528060005260406000206000915090508060000160009054906101000a900473ffffffffffffffffffffffffffffffffffffffff16908060010154908060020154908060030160009054906101000a900473ffffffffffffffffffffffffffffffffffffffff16905084565b60008073ffffffffffffffffffffffffffffffffffffffff168273ffffffffffffffffffffffffffffffffffffffff1614151515611b63576040517f08c379a000000000000000000000000000000000000000000000000000000000815260040180806020018281038252600f8152602001807f496e76616c69642061646472657373000000000000000000000000000000000081525060200191505060405180910390fd5b8173ffffffffffffffffffffffffffffffffffffffff16600160008473ffffffffffffffffffffffffffffffffffffffff1673ffffffffffffffffffffffffffffffffffffffff16815260200190815260200160002060000160009054906101000a900473ffffffffffffffffffffffffffffffffffffffff1673ffffffffffffffffffffffffffffffffffffffff16141515611c68576040517f08c379a00000000000000000000000000000000000000000000000000000000081526004018080602001828103825260138152602001807f4e6f74207265676973746572656420757365720000000000000000000000000081525060200191505060405180910390fd5b600160008373ffffffffffffffffffffffffffffffffffffffff1673ffffffffffffffffffffffffffffffffffffffff168152602001908152602001600020600101549050919050565b60006020528060005260406000206000915090508060000160009054906101000a900473ffffffffffffffffffffffffffffffffffffffff16908060010154908060020160009054906101000a900473ffffffffffffffffffffffffffffffffffffffff16905083565b60008073ffffffffffffffffffffffffffffffffffffffff168373ffffffffffffffffffffffffffffffffffffffff1614151515611dc2576040517f08c379a00000000000000000000000000000000000000000000000000000000081526004018080602001828103825260168152602001807f496e76616c69642064657669636520616464726573730000000000000000000081525060200191505060405180910390fd5b600073ffffffffffffffffffffffffffffffffffffffff166000808573ffffffffffffffffffffffffffffffffffffffff1673ffffffffffffffffffffffffffffffffffffffff16815260200190815260200160002060000160009054906101000a900473ffffffffffffffffffffffffffffffffffffffff1673ffffffffffffffffffffffffffffffffffffffff16141515611ec7576040517f08c379a00000000000000000000000000000000000000000000000000000000081526004018080602001828103825260128152602001807f416c72656164792072656769737465726564000000000000000000000000000081525060200191505060405180910390fd5b826000808573ffffffffffffffffffffffffffffffffffffffff1673ffffffffffffffffffffffffffffffffffffffff16815260200190815260200160002060000160006101000a81548173ffffffffffffffffffffffffffffffffffffffff021916908373ffffffffffffffffffffffffffffffffffffffff160217905550816000808573ffffffffffffffffffffffffffffffffffffffff1673ffffffffffffffffffffffffffffffffffffffff16815260200190815260200160002060010181905550336000808573ffffffffffffffffffffffffffffffffffffffff1673ffffffffffffffffffffffffffffffffffffffff16815260200190815260200160002060020160006101000a81548173ffffffffffffffffffffffffffffffffffffffff021916908373ffffffffffffffffffffffffffffffffffffffff160217905550600080600090505b600160003373ffffffffffffffffffffffffffffffffffffffff1673ffffffffffffffffffffffffffffffffffffffff168152602001908152602001600020600401805490508110156121be57600073ffffffffffffffffffffffffffffffffffffffff16600160003373ffffffffffffffffffffffffffffffffffffffff1673ffffffffffffffffffffffffffffffffffffffff168152602001908152602001600020600401828154811015156120c957fe5b9060005260206000200160009054906101000a900473ffffffffffffffffffffffffffffffffffffffff1673ffffffffffffffffffffffffffffffffffffffff1614156121b15784600160003373ffffffffffffffffffffffffffffffffffffffff1673ffffffffffffffffffffffffffffffffffffffff1681526020019081526020016000206004018281548110151561216057fe5b9060005260206000200160006101000a81548173ffffffffffffffffffffffffffffffffffffffff021916908373ffffffffffffffffffffffffffffffffffffffff160217905550600191506121be565b8080600101915050612015565b5080151561226d57600160003373ffffffffffffffffffffffffffffffffffffffff1673ffffffffffffffffffffffffffffffffffffffff1681526020019081526020016000206004018490806001815401808255809150509060018203906000526020600020016000909192909190916101000a81548173ffffffffffffffffffffffffffffffffffffffff021916908373ffffffffffffffffffffffffffffffffffffffff160217905550505b600191505092915050565b600082821115151561228957600080fd5b600082840390508091505092915050565b60008082840190508381101515156122b157600080fd5b8091505092915050565b61028060405190810160405280601490602082028038833980820191505090505090565b6102806040519081016040528060149060208202803883398082019150509050509056fea165627a7a7230582057a83adaeffe6f9b8d58d709d890172692de60b3dec7d22f09dce0048f8407b60029",
  "source": "pragma solidity ^0.5.0;\nimport \"./SafeMath.sol\";\n\ncontract DMTWiFiBox {\n    using SafeMath for uint;\n    uint constant maxdevices = 20;\n    uint constant minutespercredit = 1;\n    uint constant ratio = 100; // 1 dxn = 100 tokens\n    struct devinfo {\n        address addr;\n        bytes32 name;\n        address owner;        \n    }\n    mapping (address => devinfo) public devices;\n\n    struct userdata {\n        address addr;\n        uint credit;\n        uint start;\n        address pi;\n        address[] devices;\n    }\n    mapping(address => userdata) public users;\n\n    event online(address indexed from, address indexed pi, uint ipaddr, uint maxtime);\n    event deposit(address indexed from, address indexed to, uint credit);\n    event deduction(address indexed from, address indexed owner, uint starttm, uint endtm, uint creditused);\n    event offline(address indexed from, address pi);\n\n    function registerUser() public returns (bool) {\n        require(users[msg.sender].addr == address(0x0), \"Already registered\");\n        users[msg.sender].addr = msg.sender;\n        return true;\n    }\n\n    function registerDevice(address devaddr, bytes32 devname) public returns (bool) {\n        require(devaddr != address(0x0), \"Invalid device address\");\n        require(devices[devaddr].addr == address(0x0), \"Already registered\");\n        devices[devaddr].addr = devaddr;\n        devices[devaddr].name = devname;\n        devices[devaddr].owner = msg.sender;\n        bool found;\n        for (uint i = 0; i < users[msg.sender].devices.length; i++) {\n            if (users[msg.sender].devices[i] == address(0x0)) {\n                users[msg.sender].devices[i] = devaddr;\n                found = true;\n                break;\n            }\n        }\n        if (!found) {\n            users[msg.sender].devices.push(devaddr);\n        }\n        return true;\n    }\n\n    function unregisterDevice(address devaddr) public returns (bool) {\n        require(devaddr != address(0x0), \"Invalid device address\");\n        require(devices[devaddr].addr == devaddr, \"Not registered\");\n        for (uint i = 0; i < users[msg.sender].devices.length; i++) {\n            if (users[msg.sender].devices[i] == devaddr) {\n                users[msg.sender].devices[i] = address(0x0);\n                break;\n            }\n        }\n        devices[devaddr].addr = address(0x0);\n        devices[devaddr].owner = address(0x0);\n        return true;\n    }\n\n    function getUserDevices() public view returns(address[maxdevices] memory, bytes32[maxdevices] memory) {\n        address[maxdevices] memory piaddrs;\n        bytes32[maxdevices] memory pinames;\n        uint n;\n        for (uint i = 0; i < users[msg.sender].devices.length && n < maxdevices; i++) {\n            if (users[msg.sender].devices[i] != address(0x0)) {\n                piaddrs[n] = users[msg.sender].devices[i];\n                pinames[n] = devices[users[msg.sender].devices[i]].name;\n                n++;\n            }\n        }\n        return (piaddrs, pinames);\n    }\n\n    function increaseCredit(address payable to) public payable {\n        require(to != address(0x0), \"Invalid address\");\n        require(users[to].addr == to, \"Not registered user\");\n        uint credit = msg.value * ratio / 10**18;\n        users[to].credit = users[to].credit.add(credit);\n        emit deposit(msg.sender,to, credit);\n    }\n\n    function getUserCredit(address addr) public view returns (uint) {\n        require(addr != address(0x0), \"Invalid address\");\n        require(users[addr].addr == addr, \"Not registered user\");\n        return users[addr].credit;\n    }\n\n    function userOnline(address pi, uint ipaddr) public {\n        require(pi != address(0x0), \"Invalid address\");\n        require(users[msg.sender].addr == msg.sender, \"Not registered user\");\n        require(users[msg.sender].pi == address(0x0), \"Not logoned on other Pi\");\n        users[msg.sender].pi = pi;\n        users[msg.sender].start = now;\n        uint maxtime = users[msg.sender].credit / minutespercredit;\n        emit online(msg.sender, pi, ipaddr, maxtime);\n    }\n\n    function userOffline(address from) public {\n        require(from != address(0x0), \"Invalid address\");\n        require(users[from].pi == msg.sender, \"User didn't logoned on this Pi\");\n        address piowner = devices[msg.sender].owner;\n        uint starttm = users[from].start;\n        uint endtm = now;\n        uint creditused = (endtm - starttm) * minutespercredit;\n        users[from].pi = address(0x0);\n        users[from].start = 0;\n        if (users[from].credit < creditused) { // not enough\n            creditused = users[from].credit;\n        }\n        users[from].credit = users[from].credit.sub(creditused);\n        emit offline(from, msg.sender);\n        emit deduction(from, piowner, starttm, endtm, creditused);\n    }\n}",
  "sourcePath": "/Users/home/code/solidity/DMTWiFiBox/contracts/DMTWiFiBox.sol",
  "compiler": {
    "name": "solc",
    "version": "0.5.1+commit.d7688b80.Emscripten.clang"
  },
  "schemaVersion": "3.0.10",
  "updatedAt": "2019-02-17T09:33:19.596Z",
  "devdoc": {
    "methods": {}
  },
  "userdoc": {
    "methods": {}
  }
}