{
  "contractName": "DMTWiFiBox",
  "abi": [
    {
      "anonymous": false,
      "inputs": [
        {
          "indexed": false,
          "name": "from",
          "type": "address"
        },
        {
          "indexed": false,
          "name": "pi",
          "type": "address"
        },
        {
          "indexed": false,
          "name": "ipaddr",
          "type": "uint256"
        },
        {
          "indexed": false,
          "name": "maxtime",
          "type": "uint256"
        }
      ],
      "name": "online",
      "type": "event",
      "signature": "0x40484bff702f49a17999c97ac7607bfb7f094d9d69a4fabe7642ddb7a7ebcb97"
    },
    {
      "anonymous": false,
      "inputs": [
        {
          "indexed": false,
          "name": "from",
          "type": "address"
        },
        {
          "indexed": false,
          "name": "pi",
          "type": "address"
        },
        {
          "indexed": false,
          "name": "starttm",
          "type": "uint256"
        },
        {
          "indexed": false,
          "name": "endtm",
          "type": "uint256"
        },
        {
          "indexed": false,
          "name": "creditused",
          "type": "uint256"
        }
      ],
      "name": "offline",
      "type": "event",
      "signature": "0x7e9dae46772a0126b7d69fc60bc48f1cc20085853093c79fde9e44336f01ce3e"
    },
    {
      "constant": false,
      "inputs": [],
      "name": "userregister",
      "outputs": [],
      "payable": false,
      "stateMutability": "nonpayable",
      "type": "function",
      "signature": "0x4bbb5004"
    },
    {
      "constant": false,
      "inputs": [
        {
          "name": "to",
          "type": "address"
        }
      ],
      "name": "buytoken",
      "outputs": [],
      "payable": true,
      "stateMutability": "payable",
      "type": "function",
      "signature": "0x152697bb"
    },
    {
      "constant": true,
      "inputs": [
        {
          "name": "to",
          "type": "address"
        }
      ],
      "name": "query",
      "outputs": [
        {
          "name": "",
          "type": "uint256"
        }
      ],
      "payable": false,
      "stateMutability": "view",
      "type": "function",
      "signature": "0xd4fc9fc6"
    },
    {
      "constant": false,
      "inputs": [
        {
          "name": "pi",
          "type": "address"
        },
        {
          "name": "ipaddr",
          "type": "uint256"
        }
      ],
      "name": "useronline",
      "outputs": [],
      "payable": false,
      "stateMutability": "nonpayable",
      "type": "function",
      "signature": "0x191a6109"
    },
    {
      "constant": false,
      "inputs": [
        {
          "name": "from",
          "type": "address"
        }
      ],
      "name": "useroffline",
      "outputs": [],
      "payable": false,
      "stateMutability": "nonpayable",
      "type": "function",
      "signature": "0x602f06a9"
    }
  ],
  "bytecode": "0x608060405234801561001057600080fd5b50610ea4806100206000396000f3fe608060405260043610610067576000357c010000000000000000000000000000000000000000000000000000000090048063152697bb1461006c578063191a6109146100b05780634bbb50041461010b578063602f06a914610122578063d4fc9fc614610173575b600080fd5b6100ae6004803603602081101561008257600080fd5b81019080803573ffffffffffffffffffffffffffffffffffffffff1690602001909291905050506101d8565b005b3480156100bc57600080fd5b50610109600480360360408110156100d357600080fd5b81019080803573ffffffffffffffffffffffffffffffffffffffff16906020019092919080359060200190929190505050610394565b005b34801561011757600080fd5b50610120610761565b005b34801561012e57600080fd5b506101716004803603602081101561014557600080fd5b81019080803573ffffffffffffffffffffffffffffffffffffffff1690602001909291905050506108e9565b005b34801561017f57600080fd5b506101c26004803603602081101561019657600080fd5b81019080803573ffffffffffffffffffffffffffffffffffffffff169060200190929190505050610ce6565b6040518082815260200191505060405180910390f35b8073ffffffffffffffffffffffffffffffffffffffff166000808373ffffffffffffffffffffffffffffffffffffffff1673ffffffffffffffffffffffffffffffffffffffff16815260200190815260200160002060000160009054906101000a900473ffffffffffffffffffffffffffffffffffffffff1673ffffffffffffffffffffffffffffffffffffffff161415156102dc576040517f08c379a00000000000000000000000000000000000000000000000000000000081526004018080602001828103825260138152602001807f4e6f74207265676973746572656420757365720000000000000000000000000081525060200191505060405180910390fd5b6000670de0b6b3a7640000606434028115156102f457fe5b04905061034b816000808573ffffffffffffffffffffffffffffffffffffffff1673ffffffffffffffffffffffffffffffffffffffff16815260200190815260200160002060010154610e3590919063ffffffff16565b6000808473ffffffffffffffffffffffffffffffffffffffff1673ffffffffffffffffffffffffffffffffffffffff168152602001908152602001600020600101819055505050565b3373ffffffffffffffffffffffffffffffffffffffff166000803373ffffffffffffffffffffffffffffffffffffffff1673ffffffffffffffffffffffffffffffffffffffff16815260200190815260200160002060000160009054906101000a900473ffffffffffffffffffffffffffffffffffffffff1673ffffffffffffffffffffffffffffffffffffffff16141515610498576040517f08c379a00000000000000000000000000000000000000000000000000000000081526004018080602001828103825260138152602001807f4e6f74207265676973746572656420757365720000000000000000000000000081525060200191505060405180910390fd5b600073ffffffffffffffffffffffffffffffffffffffff166000803373ffffffffffffffffffffffffffffffffffffffff1673ffffffffffffffffffffffffffffffffffffffff16815260200190815260200160002060030160009054906101000a900473ffffffffffffffffffffffffffffffffffffffff1673ffffffffffffffffffffffffffffffffffffffff1614151561059d576040517f08c379a00000000000000000000000000000000000000000000000000000000081526004018080602001828103825260178152602001807f4e6f74206c6f676f6e6564206f6e206f7468657220506900000000000000000081525060200191505060405180910390fd5b816000803373ffffffffffffffffffffffffffffffffffffffff1673ffffffffffffffffffffffffffffffffffffffff16815260200190815260200160002060030160006101000a81548173ffffffffffffffffffffffffffffffffffffffff021916908373ffffffffffffffffffffffffffffffffffffffff160217905550426000803373ffffffffffffffffffffffffffffffffffffffff1673ffffffffffffffffffffffffffffffffffffffff16815260200190815260200160002060020181905550600060016000803373ffffffffffffffffffffffffffffffffffffffff1673ffffffffffffffffffffffffffffffffffffffff168152602001908152602001600020600101548115156106b257fe5b0490507f40484bff702f49a17999c97ac7607bfb7f094d9d69a4fabe7642ddb7a7ebcb9733848484604051808573ffffffffffffffffffffffffffffffffffffffff1673ffffffffffffffffffffffffffffffffffffffff1681526020018473ffffffffffffffffffffffffffffffffffffffff1673ffffffffffffffffffffffffffffffffffffffff16815260200183815260200182815260200194505050505060405180910390a1505050565b600073ffffffffffffffffffffffffffffffffffffffff166000803373ffffffffffffffffffffffffffffffffffffffff1673ffffffffffffffffffffffffffffffffffffffff16815260200190815260200160002060000160009054906101000a900473ffffffffffffffffffffffffffffffffffffffff1673ffffffffffffffffffffffffffffffffffffffff1614151515610867576040517f08c379a00000000000000000000000000000000000000000000000000000000081526004018080602001828103825260128152602001807f416c72656164792072656769737465726564000000000000000000000000000081525060200191505060405180910390fd5b336000803373ffffffffffffffffffffffffffffffffffffffff1673ffffffffffffffffffffffffffffffffffffffff16815260200190815260200160002060000160006101000a81548173ffffffffffffffffffffffffffffffffffffffff021916908373ffffffffffffffffffffffffffffffffffffffff160217905550565b3373ffffffffffffffffffffffffffffffffffffffff166000808373ffffffffffffffffffffffffffffffffffffffff1673ffffffffffffffffffffffffffffffffffffffff16815260200190815260200160002060030160009054906101000a900473ffffffffffffffffffffffffffffffffffffffff1673ffffffffffffffffffffffffffffffffffffffff161415156109ed576040517f08c379a000000000000000000000000000000000000000000000000000000000815260040180806020018281038252601e8152602001807f55736572206469646e2774206c6f676f6e6564206f6e2074686973205069000081525060200191505060405180910390fd5b60008060008373ffffffffffffffffffffffffffffffffffffffff1673ffffffffffffffffffffffffffffffffffffffff16815260200190815260200160002060020154905060004290506000600183830302905060008060008673ffffffffffffffffffffffffffffffffffffffff1673ffffffffffffffffffffffffffffffffffffffff16815260200190815260200160002060030160006101000a81548173ffffffffffffffffffffffffffffffffffffffff021916908373ffffffffffffffffffffffffffffffffffffffff16021790555060008060008673ffffffffffffffffffffffffffffffffffffffff1673ffffffffffffffffffffffffffffffffffffffff16815260200190815260200160002060020181905550806000808673ffffffffffffffffffffffffffffffffffffffff1673ffffffffffffffffffffffffffffffffffffffff168152602001908152602001600020600101541015610b98576000808573ffffffffffffffffffffffffffffffffffffffff1673ffffffffffffffffffffffffffffffffffffffff1681526020019081526020016000206001015490505b610bec816000808773ffffffffffffffffffffffffffffffffffffffff1673ffffffffffffffffffffffffffffffffffffffff16815260200190815260200160002060010154610e5690919063ffffffff16565b6000808673ffffffffffffffffffffffffffffffffffffffff1673ffffffffffffffffffffffffffffffffffffffff168152602001908152602001600020600101819055507f7e9dae46772a0126b7d69fc60bc48f1cc20085853093c79fde9e44336f01ce3e8433858585604051808673ffffffffffffffffffffffffffffffffffffffff1673ffffffffffffffffffffffffffffffffffffffff1681526020018573ffffffffffffffffffffffffffffffffffffffff1673ffffffffffffffffffffffffffffffffffffffff1681526020018481526020018381526020018281526020019550505050505060405180910390a150505050565b60008173ffffffffffffffffffffffffffffffffffffffff166000808473ffffffffffffffffffffffffffffffffffffffff1673ffffffffffffffffffffffffffffffffffffffff16815260200190815260200160002060000160009054906101000a900473ffffffffffffffffffffffffffffffffffffffff1673ffffffffffffffffffffffffffffffffffffffff16141515610dec576040517f08c379a00000000000000000000000000000000000000000000000000000000081526004018080602001828103825260138152602001807f4e6f74207265676973746572656420757365720000000000000000000000000081525060200191505060405180910390fd5b6000808373ffffffffffffffffffffffffffffffffffffffff1673ffffffffffffffffffffffffffffffffffffffff168152602001908152602001600020600101549050919050565b6000808284019050838110151515610e4c57600080fd5b8091505092915050565b6000828211151515610e6757600080fd5b60008284039050809150509291505056fea165627a7a7230582094d37553540b7e5182b4e5726b12ae45fc31d8b704e704e66b17737b8d52d6f80029",
  "source": "pragma solidity ^0.5.0;\nimport \"./SafeMath.sol\";\n\ncontract DMTWiFiBox {\n    using SafeMath for uint;\n\n    uint constant minutespercredit = 1;\n    uint constant ratio = 100; // 1 dxn = 100 tokens\n    struct userdata {\n        address addr;\n        uint credit;\n        uint start;\n        address pi;\n    }\n    mapping(address => userdata) users;\n\n    event online(address from, address pi, uint ipaddr, uint maxtime);\n    event offline(address from, address pi, uint starttm, uint endtm, uint creditused);\n\n    function userregister() public {\n        require(users[msg.sender].addr != address(0x0), \"Already registered\");\n        users[msg.sender].addr = msg.sender;\n    }\n\n    function buytoken(address to) public payable {\n        require(users[to].addr == to, \"Not registered user\");\n        uint credit = msg.value * ratio / 10**18;\n        users[to].credit = users[to].credit.add(credit);\n    }\n\n    function query(address to) public view returns (uint) {\n        require(users[to].addr == to, \"Not registered user\");\n        return users[to].credit;\n    }\n\n    function useronline(address pi, uint ipaddr) public {\n        require(users[msg.sender].addr == msg.sender, \"Not registered user\");\n        require(users[msg.sender].pi == address(0x0), \"Not logoned on other Pi\");\n        users[msg.sender].pi = pi;\n        users[msg.sender].start = now;\n        uint maxtime = users[msg.sender].credit / minutespercredit;\n        emit online(msg.sender, pi, ipaddr, maxtime);\n    }\n\n    function useroffline(address from) public {\n        require(users[from].pi == msg.sender, \"User didn't logoned on this Pi\");\n        uint starttm = users[from].start;\n        uint endtm = now;\n        uint creditused = (endtm - starttm) * minutespercredit;\n        users[from].pi = address(0x0);\n        users[from].start = 0;\n        if (users[from].credit < creditused) { // not enough\n            creditused = users[from].credit;\n        }\n        users[from].credit = users[from].credit.sub(creditused);\n        emit offline(from, msg.sender, starttm, endtm, creditused);\n    }\n}",
  "sourcePath": "/Users/eddie/Projects/dmtwifibox/contracts/DMTWiFiBox.sol",
  "compiler": {
    "name": "solc",
    "version": "0.5.1+commit.d7688b80.Emscripten.clang"
  },
  "schemaVersion": "3.0.10",
  "updatedAt": "2019-01-28T02:23:17.685Z",
  "devdoc": {
    "methods": {}
  },
  "userdoc": {
    "methods": {}
  }
}