{
  "contractName": "DMTWiFiBox",
  "abi": [
    {
      "constant": true,
      "inputs": [
        {
          "name": "",
          "type": "address"
        }
      ],
      "name": "users",
      "outputs": [
        {
          "name": "addr",
          "type": "address"
        },
        {
          "name": "credit",
          "type": "uint256"
        },
        {
          "name": "start",
          "type": "uint256"
        },
        {
          "name": "pi",
          "type": "address"
        }
      ],
      "payable": false,
      "stateMutability": "view",
      "type": "function",
      "signature": "0xa87430ba"
    },
    {
      "anonymous": false,
      "inputs": [
        {
          "indexed": true,
          "name": "from",
          "type": "address"
        },
        {
          "indexed": true,
          "name": "pi",
          "type": "address"
        },
        {
          "indexed": false,
          "name": "ipaddr",
          "type": "uint256"
        },
        {
          "indexed": false,
          "name": "maxtime",
          "type": "uint256"
        }
      ],
      "name": "online",
      "type": "event",
      "signature": "0x40484bff702f49a17999c97ac7607bfb7f094d9d69a4fabe7642ddb7a7ebcb97"
    },
    {
      "anonymous": false,
      "inputs": [
        {
          "indexed": true,
          "name": "from",
          "type": "address"
        },
        {
          "indexed": true,
          "name": "owner",
          "type": "address"
        },
        {
          "indexed": false,
          "name": "pi",
          "type": "address"
        },
        {
          "indexed": false,
          "name": "starttm",
          "type": "uint256"
        },
        {
          "indexed": false,
          "name": "endtm",
          "type": "uint256"
        },
        {
          "indexed": false,
          "name": "creditused",
          "type": "uint256"
        }
      ],
      "name": "offline",
      "type": "event",
      "signature": "0x5c1be47004617588a0e86cd819fbb27743064ce5e03d544e002f349aace15c27"
    },
    {
      "anonymous": false,
      "inputs": [
        {
          "indexed": true,
          "name": "from",
          "type": "address"
        },
        {
          "indexed": true,
          "name": "to",
          "type": "address"
        },
        {
          "indexed": false,
          "name": "credit",
          "type": "uint256"
        }
      ],
      "name": "deposit",
      "type": "event",
      "signature": "0x8340f549784ae20e594a56455e5abb4ed826297c781c961abb34abe5fd01dcac"
    },
    {
      "constant": false,
      "inputs": [],
      "name": "registerUser",
      "outputs": [
        {
          "name": "",
          "type": "bool"
        }
      ],
      "payable": false,
      "stateMutability": "nonpayable",
      "type": "function",
      "signature": "0x4d3820eb"
    },
    {
      "constant": false,
      "inputs": [
        {
          "name": "devaddr",
          "type": "address"
        },
        {
          "name": "devname",
          "type": "bytes32"
        }
      ],
      "name": "registerDevice",
      "outputs": [
        {
          "name": "",
          "type": "bool"
        }
      ],
      "payable": false,
      "stateMutability": "nonpayable",
      "type": "function",
      "signature": "0xf53ddc22"
    },
    {
      "constant": false,
      "inputs": [
        {
          "name": "devaddr",
          "type": "address"
        }
      ],
      "name": "unregisterDevice",
      "outputs": [
        {
          "name": "",
          "type": "bool"
        }
      ],
      "payable": false,
      "stateMutability": "nonpayable",
      "type": "function",
      "signature": "0x220e8162"
    },
    {
      "constant": true,
      "inputs": [],
      "name": "getUserDevices",
      "outputs": [
        {
          "name": "",
          "type": "address[20]"
        },
        {
          "name": "",
          "type": "bytes32[20]"
        }
      ],
      "payable": false,
      "stateMutability": "view",
      "type": "function",
      "signature": "0x688db667"
    },
    {
      "constant": false,
      "inputs": [
        {
          "name": "to",
          "type": "address"
        }
      ],
      "name": "increaseCredit",
      "outputs": [],
      "payable": true,
      "stateMutability": "payable",
      "type": "function",
      "signature": "0xa1c89fa6"
    },
    {
      "constant": true,
      "inputs": [
        {
          "name": "addr",
          "type": "address"
        }
      ],
      "name": "getUserCredit",
      "outputs": [
        {
          "name": "",
          "type": "uint256"
        }
      ],
      "payable": false,
      "stateMutability": "view",
      "type": "function",
      "signature": "0xdad6f0dc"
    },
    {
      "constant": false,
      "inputs": [
        {
          "name": "pi",
          "type": "address"
        },
        {
          "name": "ipaddr",
          "type": "uint256"
        }
      ],
      "name": "userOnline",
      "outputs": [],
      "payable": false,
      "stateMutability": "nonpayable",
      "type": "function",
      "signature": "0x1c5c15f7"
    },
    {
      "constant": false,
      "inputs": [
        {
          "name": "from",
          "type": "address"
        }
      ],
      "name": "userOffline",
      "outputs": [],
      "payable": false,
      "stateMutability": "nonpayable",
      "type": "function",
      "signature": "0x7264f348"
    }
  ],
  "bytecode": "0x608060405234801561001057600080fd5b50611cc5806100206000396000f3fe608060405260043610610093576000357c0100000000000000000000000000000000000000000000000000000000900480631c5c15f714610098578063220e8162146100f35780634d3820eb1461015c578063688db6671461018b5780637264f3481461020d578063a1c89fa61461025e578063a87430ba146102a2578063dad6f0dc14610374578063f53ddc22146103d9575b600080fd5b3480156100a457600080fd5b506100f1600480360360408110156100bb57600080fd5b81019080803573ffffffffffffffffffffffffffffffffffffffff1690602001909291908035906020019092919050505061044c565b005b3480156100ff57600080fd5b506101426004803603602081101561011657600080fd5b81019080803573ffffffffffffffffffffffffffffffffffffffff1690602001909291905050506107e3565b604051808215151515815260200191505060405180910390f35b34801561016857600080fd5b50610171610b9c565b604051808215151515815260200191505060405180910390f35b34801561019757600080fd5b506101a0610c26565b6040518083601460200280838360005b838110156101cb5780820151818401526020810190506101b0565b5050505090500182601460200280838360005b838110156101f95780820151818401526020810190506101de565b505050509050019250505060405180910390f35b34801561021957600080fd5b5061025c6004803603602081101561023057600080fd5b81019080803573ffffffffffffffffffffffffffffffffffffffff169060200190929190505050610f0b565b005b6102a06004803603602081101561027457600080fd5b81019080803573ffffffffffffffffffffffffffffffffffffffff169060200190929190505050611371565b005b3480156102ae57600080fd5b506102f1600480360360208110156102c557600080fd5b81019080803573ffffffffffffffffffffffffffffffffffffffff169060200190929190505050611595565b604051808573ffffffffffffffffffffffffffffffffffffffff1673ffffffffffffffffffffffffffffffffffffffff1681526020018481526020018381526020018273ffffffffffffffffffffffffffffffffffffffff1673ffffffffffffffffffffffffffffffffffffffff16815260200194505050505060405180910390f35b34801561038057600080fd5b506103c36004803603602081101561039757600080fd5b81019080803573ffffffffffffffffffffffffffffffffffffffff169060200190929190505050611605565b6040518082815260200191505060405180910390f35b3480156103e557600080fd5b50610432600480360360408110156103fc57600080fd5b81019080803573ffffffffffffffffffffffffffffffffffffffff16906020019092919080359060200190929190505050611756565b604051808215151515815260200191505060405180910390f35b3373ffffffffffffffffffffffffffffffffffffffff16600160003373ffffffffffffffffffffffffffffffffffffffff1673ffffffffffffffffffffffffffffffffffffffff16815260200190815260200160002060000160009054906101000a900473ffffffffffffffffffffffffffffffffffffffff1673ffffffffffffffffffffffffffffffffffffffff16141515610551576040517f08c379a00000000000000000000000000000000000000000000000000000000081526004018080602001828103825260138152602001807f4e6f74207265676973746572656420757365720000000000000000000000000081525060200191505060405180910390fd5b600073ffffffffffffffffffffffffffffffffffffffff16600160003373ffffffffffffffffffffffffffffffffffffffff1673ffffffffffffffffffffffffffffffffffffffff16815260200190815260200160002060030160009054906101000a900473ffffffffffffffffffffffffffffffffffffffff1673ffffffffffffffffffffffffffffffffffffffff16141515610657576040517f08c379a00000000000000000000000000000000000000000000000000000000081526004018080602001828103825260178152602001807f4e6f74206c6f676f6e6564206f6e206f7468657220506900000000000000000081525060200191505060405180910390fd5b81600160003373ffffffffffffffffffffffffffffffffffffffff1673ffffffffffffffffffffffffffffffffffffffff16815260200190815260200160002060030160006101000a81548173ffffffffffffffffffffffffffffffffffffffff021916908373ffffffffffffffffffffffffffffffffffffffff16021790555042600160003373ffffffffffffffffffffffffffffffffffffffff1673ffffffffffffffffffffffffffffffffffffffff16815260200190815260200160002060020181905550600060018060003373ffffffffffffffffffffffffffffffffffffffff1673ffffffffffffffffffffffffffffffffffffffff1681526020019081526020016000206001015481151561076e57fe5b0490508273ffffffffffffffffffffffffffffffffffffffff163373ffffffffffffffffffffffffffffffffffffffff167f40484bff702f49a17999c97ac7607bfb7f094d9d69a4fabe7642ddb7a7ebcb978484604051808381526020018281526020019250505060405180910390a3505050565b60008173ffffffffffffffffffffffffffffffffffffffff166000808473ffffffffffffffffffffffffffffffffffffffff1673ffffffffffffffffffffffffffffffffffffffff16815260200190815260200160002060000160009054906101000a900473ffffffffffffffffffffffffffffffffffffffff1673ffffffffffffffffffffffffffffffffffffffff161415156108e9576040517f08c379a000000000000000000000000000000000000000000000000000000000815260040180806020018281038252600e8152602001807f4e6f74207265676973746572656400000000000000000000000000000000000081525060200191505060405180910390fd5b60008090505b600160003373ffffffffffffffffffffffffffffffffffffffff1673ffffffffffffffffffffffffffffffffffffffff16815260200190815260200160002060040180549050811015610a90578273ffffffffffffffffffffffffffffffffffffffff16600160003373ffffffffffffffffffffffffffffffffffffffff1673ffffffffffffffffffffffffffffffffffffffff168152602001908152602001600020600401828154811015156109a257fe5b9060005260206000200160009054906101000a900473ffffffffffffffffffffffffffffffffffffffff1673ffffffffffffffffffffffffffffffffffffffff161415610a83576000600160003373ffffffffffffffffffffffffffffffffffffffff1673ffffffffffffffffffffffffffffffffffffffff16815260200190815260200160002060040182815481101515610a3a57fe5b9060005260206000200160006101000a81548173ffffffffffffffffffffffffffffffffffffffff021916908373ffffffffffffffffffffffffffffffffffffffff1602179055505b80806001019150506108ef565b5060008060008473ffffffffffffffffffffffffffffffffffffffff1673ffffffffffffffffffffffffffffffffffffffff16815260200190815260200160002060000160006101000a81548173ffffffffffffffffffffffffffffffffffffffff021916908373ffffffffffffffffffffffffffffffffffffffff16021790555060008060008473ffffffffffffffffffffffffffffffffffffffff1673ffffffffffffffffffffffffffffffffffffffff16815260200190815260200160002060020160006101000a81548173ffffffffffffffffffffffffffffffffffffffff021916908373ffffffffffffffffffffffffffffffffffffffff16021790555060019050919050565b600033600160003373ffffffffffffffffffffffffffffffffffffffff1673ffffffffffffffffffffffffffffffffffffffff16815260200190815260200160002060000160006101000a81548173ffffffffffffffffffffffffffffffffffffffff021916908373ffffffffffffffffffffffffffffffffffffffff1602179055506001905090565b610c2e611c51565b610c36611c75565b610c3e611c51565b610c46611c75565b600080600090505b600160003373ffffffffffffffffffffffffffffffffffffffff1673ffffffffffffffffffffffffffffffffffffffff1681526020019081526020016000206004018054905081108015610ca25750601482105b15610efd57600073ffffffffffffffffffffffffffffffffffffffff16600160003373ffffffffffffffffffffffffffffffffffffffff1673ffffffffffffffffffffffffffffffffffffffff16815260200190815260200160002060040182815481101515610d0e57fe5b9060005260206000200160009054906101000a900473ffffffffffffffffffffffffffffffffffffffff1673ffffffffffffffffffffffffffffffffffffffff16141515610ef057600160003373ffffffffffffffffffffffffffffffffffffffff1673ffffffffffffffffffffffffffffffffffffffff16815260200190815260200160002060040181815481101515610da557fe5b9060005260206000200160009054906101000a900473ffffffffffffffffffffffffffffffffffffffff168483601481101515610dde57fe5b602002019073ffffffffffffffffffffffffffffffffffffffff16908173ffffffffffffffffffffffffffffffffffffffff1681525050600080600160003373ffffffffffffffffffffffffffffffffffffffff1673ffffffffffffffffffffffffffffffffffffffff16815260200190815260200160002060040183815481101515610e6757fe5b9060005260206000200160009054906101000a900473ffffffffffffffffffffffffffffffffffffffff1673ffffffffffffffffffffffffffffffffffffffff1673ffffffffffffffffffffffffffffffffffffffff168152602001908152602001600020600101548383601481101515610ede57fe5b60200201818152505081806001019250505b8080600101915050610c4e565b508282945094505050509091565b3373ffffffffffffffffffffffffffffffffffffffff16600160008373ffffffffffffffffffffffffffffffffffffffff1673ffffffffffffffffffffffffffffffffffffffff16815260200190815260200160002060030160009054906101000a900473ffffffffffffffffffffffffffffffffffffffff1673ffffffffffffffffffffffffffffffffffffffff16141515611010576040517f08c379a000000000000000000000000000000000000000000000000000000000815260040180806020018281038252601e8152602001807f55736572206469646e2774206c6f676f6e6564206f6e2074686973205069000081525060200191505060405180910390fd5b60008060003373ffffffffffffffffffffffffffffffffffffffff1673ffffffffffffffffffffffffffffffffffffffff16815260200190815260200160002060020160009054906101000a900473ffffffffffffffffffffffffffffffffffffffff1690506000600160008473ffffffffffffffffffffffffffffffffffffffff1673ffffffffffffffffffffffffffffffffffffffff1681526020019081526020016000206002015490506000429050600060018383030290506000600160008773ffffffffffffffffffffffffffffffffffffffff1673ffffffffffffffffffffffffffffffffffffffff16815260200190815260200160002060030160006101000a81548173ffffffffffffffffffffffffffffffffffffffff021916908373ffffffffffffffffffffffffffffffffffffffff1602179055506000600160008773ffffffffffffffffffffffffffffffffffffffff1673ffffffffffffffffffffffffffffffffffffffff1681526020019081526020016000206002018190555080600160008773ffffffffffffffffffffffffffffffffffffffff1673ffffffffffffffffffffffffffffffffffffffff16815260200190815260200160002060010154101561122657600160008673ffffffffffffffffffffffffffffffffffffffff1673ffffffffffffffffffffffffffffffffffffffff1681526020019081526020016000206001015490505b61127b81600160008873ffffffffffffffffffffffffffffffffffffffff1673ffffffffffffffffffffffffffffffffffffffff16815260200190815260200160002060010154611c0e90919063ffffffff16565b600160008773ffffffffffffffffffffffffffffffffffffffff1673ffffffffffffffffffffffffffffffffffffffff168152602001908152602001600020600101819055508373ffffffffffffffffffffffffffffffffffffffff168573ffffffffffffffffffffffffffffffffffffffff167f5c1be47004617588a0e86cd819fbb27743064ce5e03d544e002f349aace15c2733868686604051808573ffffffffffffffffffffffffffffffffffffffff1673ffffffffffffffffffffffffffffffffffffffff16815260200184815260200183815260200182815260200194505050505060405180910390a35050505050565b8073ffffffffffffffffffffffffffffffffffffffff16600160008373ffffffffffffffffffffffffffffffffffffffff1673ffffffffffffffffffffffffffffffffffffffff16815260200190815260200160002060000160009054906101000a900473ffffffffffffffffffffffffffffffffffffffff1673ffffffffffffffffffffffffffffffffffffffff16141515611476576040517f08c379a00000000000000000000000000000000000000000000000000000000081526004018080602001828103825260138152602001807f4e6f74207265676973746572656420757365720000000000000000000000000081525060200191505060405180910390fd5b6000670de0b6b3a76400006064340281151561148e57fe5b0490506114e681600160008573ffffffffffffffffffffffffffffffffffffffff1673ffffffffffffffffffffffffffffffffffffffff16815260200190815260200160002060010154611c3090919063ffffffff16565b600160008473ffffffffffffffffffffffffffffffffffffffff1673ffffffffffffffffffffffffffffffffffffffff168152602001908152602001600020600101819055508173ffffffffffffffffffffffffffffffffffffffff163373ffffffffffffffffffffffffffffffffffffffff167f8340f549784ae20e594a56455e5abb4ed826297c781c961abb34abe5fd01dcac836040518082815260200191505060405180910390a35050565b60016020528060005260406000206000915090508060000160009054906101000a900473ffffffffffffffffffffffffffffffffffffffff16908060010154908060020154908060030160009054906101000a900473ffffffffffffffffffffffffffffffffffffffff16905084565b60008173ffffffffffffffffffffffffffffffffffffffff16600160008473ffffffffffffffffffffffffffffffffffffffff1673ffffffffffffffffffffffffffffffffffffffff16815260200190815260200160002060000160009054906101000a900473ffffffffffffffffffffffffffffffffffffffff1673ffffffffffffffffffffffffffffffffffffffff1614151561170c576040517f08c379a00000000000000000000000000000000000000000000000000000000081526004018080602001828103825260138152602001807f4e6f74207265676973746572656420757365720000000000000000000000000081525060200191505060405180910390fd5b600160008373ffffffffffffffffffffffffffffffffffffffff1673ffffffffffffffffffffffffffffffffffffffff168152602001908152602001600020600101549050919050565b60008073ffffffffffffffffffffffffffffffffffffffff166000808573ffffffffffffffffffffffffffffffffffffffff1673ffffffffffffffffffffffffffffffffffffffff16815260200190815260200160002060000160009054906101000a900473ffffffffffffffffffffffffffffffffffffffff1673ffffffffffffffffffffffffffffffffffffffff161415151561185d576040517f08c379a00000000000000000000000000000000000000000000000000000000081526004018080602001828103825260128152602001807f416c72656164792072656769737465726564000000000000000000000000000081525060200191505060405180910390fd5b826000808573ffffffffffffffffffffffffffffffffffffffff1673ffffffffffffffffffffffffffffffffffffffff16815260200190815260200160002060000160006101000a81548173ffffffffffffffffffffffffffffffffffffffff021916908373ffffffffffffffffffffffffffffffffffffffff160217905550816000808573ffffffffffffffffffffffffffffffffffffffff1673ffffffffffffffffffffffffffffffffffffffff16815260200190815260200160002060010181905550336000808573ffffffffffffffffffffffffffffffffffffffff1673ffffffffffffffffffffffffffffffffffffffff16815260200190815260200160002060020160006101000a81548173ffffffffffffffffffffffffffffffffffffffff021916908373ffffffffffffffffffffffffffffffffffffffff160217905550600080600090505b600160003373ffffffffffffffffffffffffffffffffffffffff1673ffffffffffffffffffffffffffffffffffffffff16815260200190815260200160002060040180549050811015611b5457600073ffffffffffffffffffffffffffffffffffffffff16600160003373ffffffffffffffffffffffffffffffffffffffff1673ffffffffffffffffffffffffffffffffffffffff16815260200190815260200160002060040182815481101515611a5f57fe5b9060005260206000200160009054906101000a900473ffffffffffffffffffffffffffffffffffffffff1673ffffffffffffffffffffffffffffffffffffffff161415611b475784600160003373ffffffffffffffffffffffffffffffffffffffff1673ffffffffffffffffffffffffffffffffffffffff16815260200190815260200160002060040182815481101515611af657fe5b9060005260206000200160006101000a81548173ffffffffffffffffffffffffffffffffffffffff021916908373ffffffffffffffffffffffffffffffffffffffff16021790555060019150611b54565b80806001019150506119ab565b50801515611c0357600160003373ffffffffffffffffffffffffffffffffffffffff1673ffffffffffffffffffffffffffffffffffffffff1681526020019081526020016000206004018490806001815401808255809150509060018203906000526020600020016000909192909190916101000a81548173ffffffffffffffffffffffffffffffffffffffff021916908373ffffffffffffffffffffffffffffffffffffffff160217905550505b600191505092915050565b6000828211151515611c1f57600080fd5b600082840390508091505092915050565b6000808284019050838110151515611c4757600080fd5b8091505092915050565b61028060405190810160405280601490602082028038833980820191505090505090565b6102806040519081016040528060149060208202803883398082019150509050509056fea165627a7a72305820f009e39fb8b3fd90e3928a30f00e4908b37c4ff56d6c3895e89999f35f089d7d0029",
  "source": "pragma solidity ^0.5.0;\nimport \"./SafeMath.sol\";\n\ncontract DMTWiFiBox {\n    using SafeMath for uint;\n    uint constant maxdevices = 20;\n    uint constant minutespercredit = 1;\n    uint constant ratio = 100; // 1 dxn = 100 tokens\n    struct devinfo {\n        address addr;\n        bytes32 name;\n        address owner;        \n    }\n    mapping (address => devinfo) devices;\n\n    struct userdata {\n        address addr;\n        uint credit;\n        uint start;\n        address pi;\n        address[] devices;\n    }\n    mapping(address => userdata) public users;\n\n    event online(address indexed from, address indexed pi, uint ipaddr, uint maxtime);\n    event offline(address indexed from, address indexed owner, address pi, uint starttm, uint endtm, uint creditused);\n    event deposit(address indexed from, address indexed to, uint credit);\n\n    function registerUser() public returns (bool) {\n        // require(users[msg.sender].addr == address(0x0), \"Already registered\");\n        users[msg.sender].addr = msg.sender;\n        return true;\n    }\n\n    function registerDevice(address devaddr, bytes32 devname) public returns (bool) {\n        require(devices[devaddr].addr != address(0x0), \"Already registered\");\n        devices[devaddr].addr = devaddr;\n        devices[devaddr].name = devname;\n        devices[devaddr].owner = msg.sender;\n        bool found;\n        for (uint i = 0; i < users[msg.sender].devices.length; i++) {\n            if (users[msg.sender].devices[i] == address(0x0)) {\n                users[msg.sender].devices[i] = devaddr;\n                found = true;\n                break;\n            }\n        }\n        if (!found) {\n            users[msg.sender].devices.push(devaddr);\n        }\n        return true;\n    }\n\n    function unregisterDevice(address devaddr) public returns (bool) {\n        require(devices[devaddr].addr == devaddr, \"Not registered\");\n        for (uint i = 0; i < users[msg.sender].devices.length; i++) {\n            if (users[msg.sender].devices[i] == devaddr) {\n                users[msg.sender].devices[i] = address(0x0);\n            }\n        }\n        devices[devaddr].addr = address(0x0);\n        devices[devaddr].owner = address(0x0);\n        return true;\n    }\n\n    function getUserDevices() public view returns(address[maxdevices] memory, bytes32[maxdevices] memory) {\n        address[maxdevices] memory piaddrs;\n        bytes32[maxdevices] memory pinames;\n        uint n;\n        for (uint i = 0; i < users[msg.sender].devices.length && n < maxdevices; i++) {\n            if (users[msg.sender].devices[i] != address(0x0)) {\n                piaddrs[n] = users[msg.sender].devices[i];\n                pinames[n] = devices[users[msg.sender].devices[i]].name;\n                n++;\n            }\n        }\n        return (piaddrs, pinames);\n    }\n\n    function increaseCredit(address payable to) public payable {\n        require(users[to].addr == to, \"Not registered user\");\n        uint credit = msg.value * ratio / 10**18;\n        users[to].credit = users[to].credit.add(credit);\n        emit deposit(msg.sender,to, credit);\n    }\n\n    function getUserCredit(address addr) public view returns (uint) {\n        require(users[addr].addr == addr, \"Not registered user\");\n        return users[addr].credit;\n    }\n\n    function userOnline(address pi, uint ipaddr) public {\n        require(users[msg.sender].addr == msg.sender, \"Not registered user\");\n        require(users[msg.sender].pi == address(0x0), \"Not logoned on other Pi\");\n        users[msg.sender].pi = pi;\n        users[msg.sender].start = now;\n        uint maxtime = users[msg.sender].credit / minutespercredit;\n        emit online(msg.sender, pi, ipaddr, maxtime);\n    }\n\n    function userOffline(address from) public {\n        require(users[from].pi == msg.sender, \"User didn't logoned on this Pi\");\n        address piowner = devices[msg.sender].owner;\n        uint starttm = users[from].start;\n        uint endtm = now;\n        uint creditused = (endtm - starttm) * minutespercredit;\n        users[from].pi = address(0x0);\n        users[from].start = 0;\n        if (users[from].credit < creditused) { // not enough\n            creditused = users[from].credit;\n        }\n        users[from].credit = users[from].credit.sub(creditused);\n        emit offline(from, piowner, msg.sender, starttm, endtm, creditused);\n    }\n}",
  "sourcePath": "/Users/home/code/solidity/DMTWiFiBox/contracts/DMTWiFiBox.sol",
  "compiler": {
    "name": "solc",
    "version": "0.5.1+commit.d7688b80.Emscripten.clang"
  },
  "schemaVersion": "3.0.10",
  "updatedAt": "2019-02-15T05:41:08.517Z",
  "devdoc": {
    "methods": {}
  },
  "userdoc": {
    "methods": {}
  }
}